{
    "_format": "hh-sol-artifact-1",
    "contractName": "Lock",
    "sourceName": "contracts/Lock.sol",
    "abi": [
        {
            "inputs": [
                {
                    "internalType": "uint256",
                    "name": "_unlockTime",
                    "type": "uint256"
                }
            ],
            "stateMutability": "payable",
            "type": "constructor"
        },
        {
            "anonymous": false,
            "inputs": [
                {
                    "indexed": false,
                    "internalType": "uint256",
                    "name": "amount",
                    "type": "uint256"
                },
                {
                    "indexed": false,
                    "internalType": "uint256",
                    "name": "when",
                    "type": "uint256"
                }
            ],
            "name": "Deposit",
            "type": "event"
        },
        {
            "anonymous": false,
            "inputs": [
                {
                    "indexed": false,
                    "internalType": "uint256",
                    "name": "amount",
                    "type": "uint256"
                },
                {
                    "indexed": false,
                    "internalType": "uint256",
                    "name": "when",
                    "type": "uint256"
                }
            ],
            "name": "Withdrawal",
            "type": "event"
        },
        {
            "inputs": [],
            "name": "deposit",
            "outputs": [],
            "stateMutability": "payable",
            "type": "function"
        },
        {
            "inputs": [],
            "name": "getLockedAmount",
            "outputs": [
                {
                    "internalType": "uint256",
                    "name": "",
                    "type": "uint256"
                }
            ],
            "stateMutability": "view",
            "type": "function"
        },
        {
            "inputs": [],
            "name": "owner",
            "outputs": [
                {
                    "internalType": "address payable",
                    "name": "",
                    "type": "address"
                }
            ],
            "stateMutability": "view",
            "type": "function"
        },
        {
            "inputs": [],
            "name": "unlockTime",
            "outputs": [
                {
                    "internalType": "uint256",
                    "name": "",
                    "type": "uint256"
                }
            ],
            "stateMutability": "view",
            "type": "function"
        },
        {
            "inputs": [],
            "name": "withdraw",
            "outputs": [],
            "stateMutability": "nonpayable",
            "type": "function"
        }
    ],
    "bytecode": "0x608060405260405161072f38038061072f833981810160405281019061002591906100f0565b804210610067576040517f08c379a000000000000000000000000000000000000000000000000000000000815260040161005e906101a0565b60405180910390fd5b8060008190555033600160006101000a81548173ffffffffffffffffffffffffffffffffffffffff021916908373ffffffffffffffffffffffffffffffffffffffff160217905550506101c0565b600080fd5b6000819050919050565b6100cd816100ba565b81146100d857600080fd5b50565b6000815190506100ea816100c4565b92915050565b600060208284031215610106576101056100b5565b5b6000610114848285016100db565b91505092915050565b600082825260208201905092915050565b7f556e6c6f636b2074696d652073686f756c6420626520696e207468652066757460008201527f7572650000000000000000000000000000000000000000000000000000000000602082015250565b600061018a60238361011d565b91506101958261012e565b604082019050919050565b600060208201905081810360008301526101b98161017d565b9050919050565b610560806101cf6000396000f3fe60806040526004361061004a5760003560e01c8063251c1aa31461004f578063252bc8861461007a5780633ccfd60b146100a55780638da5cb5b146100bc578063d0e30db0146100e7575b600080fd5b34801561005b57600080fd5b506100646100f1565b6040516100719190610335565b60405180910390f35b34801561008657600080fd5b5061008f6100f7565b60405161009c9190610335565b60405180910390f35b3480156100b157600080fd5b506100ba6100ff565b005b3480156100c857600080fd5b506100d1610278565b6040516100de9190610391565b60405180910390f35b6100ef61029e565b005b60005481565b600047905090565b600054421015610144576040517f08c379a000000000000000000000000000000000000000000000000000000000815260040161013b90610409565b60405180910390fd5b600160009054906101000a900473ffffffffffffffffffffffffffffffffffffffff1673ffffffffffffffffffffffffffffffffffffffff163373ffffffffffffffffffffffffffffffffffffffff16146101d4576040517f08c379a00000000000000000000000000000000000000000000000000000000081526004016101cb90610475565b60405180910390fd5b7fbf2ed60bd5b5965d685680c01195c9514e4382e28e3a5a2d2d5244bf59411b934742604051610205929190610495565b60405180910390a1600160009054906101000a900473ffffffffffffffffffffffffffffffffffffffff1673ffffffffffffffffffffffffffffffffffffffff166108fc479081150290604051600060405180830381858888f19350505050158015610275573d6000803e3d6000fd5b50565b600160009054906101000a900473ffffffffffffffffffffffffffffffffffffffff1681565b600034116102e1576040517f08c379a00000000000000000000000000000000000000000000000000000000081526004016102d89061050a565b60405180910390fd5b7fa3af609bf46297028ce551832669030f9effef2b02606d02cbbcc40fe6b47c553442604051610312929190610495565b60405180910390a1565b6000819050919050565b61032f8161031c565b82525050565b600060208201905061034a6000830184610326565b92915050565b600073ffffffffffffffffffffffffffffffffffffffff82169050919050565b600061037b82610350565b9050919050565b61038b81610370565b82525050565b60006020820190506103a66000830184610382565b92915050565b600082825260208201905092915050565b7f596f752063616e27742077697468647261772079657400000000000000000000600082015250565b60006103f36016836103ac565b91506103fe826103bd565b602082019050919050565b60006020820190508181036000830152610422816103e6565b9050919050565b7f596f75206172656e277420746865206f776e6572000000000000000000000000600082015250565b600061045f6014836103ac565b915061046a82610429565b602082019050919050565b6000602082019050818103600083015261048e81610452565b9050919050565b60006040820190506104aa6000830185610326565b6104b76020830184610326565b9392505050565b7f57656b61204465706f736974206b756277612121000000000000000000000000600082015250565b60006104f46014836103ac565b91506104ff826104be565b602082019050919050565b60006020820190508181036000830152610523816104e7565b905091905056fea26469706673582212208084ebf0890c154c1f45f640283609def63659c77178db328991c31d0f2f1a8d64736f6c634300081c0033",
    "linkReferences": {},
    "deployedLinkReferences": {}
}